:100000000C9462000C948A000C948A000C948A0070
:100010000C948A000C948A000C948A000C948A0038
:100020000C948A000C948A000C948A000C948A0028
:100030000C948A000C948A000C948A000C948A0018
:100040000C9405050C948A000C94D3040C94AD0414
:100050000C948A000C948A000C948A000C948A00F8
:100060000C948A000C948A000000000024002700F1
:100070002A0000000000250028002B0000000000DE
:1000800023002600290004040404040404040202DA
:100090000202020203030303030301020408102007
:1000A0004080010204081020010204081020000012
:1000B0000008000201000003040700000000000027
:1000C00000004F0511241FBECFEFD8E0DEBFCDBF2B
:1000D00011E0A0E0B1E0EEE4F0E102C005900D9285
:1000E000A633B107D9F721E0A6E3B1E001C01D9224
:1000F000A83FB207E1F710E0C2E6D0E004C02197C4
:10010000FE010E940408C136D107C9F70E94B40558
:100110000C9425080C940000AF92BF92CF92DF920E
:10012000EF92FF920F931F93CF93DF936C017B01AC
:100130008B01040F151FEB015E01AE18BF08C0173D
:10014000D10759F06991D601ED91FC910190F081B0
:10015000E02DC6010995892B79F7C501DF91CF9173
:100160001F910F91FF90EF90DF90CF90BF90AF90D5
:100170000895FC01538D448D252F30E0842F90E0AD
:10018000821B930B541710F0CF9608950197089592
:10019000FC01918D828D981761F0A28DAE0FBF2F5B
:1001A000B11D5D968C91928D9F5F9F73928F90E0B1
:1001B00008958FEF9FEF0895FC01918D828D981720
:1001C00031F0828DE80FF11D858D90E008958FEF5D
:1001D0009FEF08952FB7F89480913D0190913E01D3
:1001E000A0913F01B09140012FBF809349019093AE
:1001F0004A01A0934B01B0934C0181E491E00E942D
:10020000DC0097FF26C02FB7F89480913D019091B4
:100210003E01A0913F01B09140012FBF40914901A3
:1002200050914A0160914B0170914C01841B950BD8
:10023000A60BB70B409145015091460160914701D3
:100240007091480184179507A607B707B0F28FEFA2
:100250009FEF0895FC01918D228D892F90E0805CA5
:100260009F4F821B91098F739927089581E491E034
:100270000E942A0121E0892B09F420E0822F0895B1
:1002800080E090E0892B29F00E94360181110C94C6
:1002900000000895FC01A48DA80FB92FB11DA35A29
:1002A000BF4F2C91848D90E001968F739927848F96
:1002B000A689B7892C93A089B1898C9183708064B9
:1002C0008C93938D848D981306C00288F389E02D5A
:1002D00080818F7D80830895EF92FF920F931F930B
:1002E000CF93DF93EC0181E0888F9B8D8C8D9813E9
:1002F0001AC0E889F989808185FF15C09FB7F894F5
:10030000EE89FF896083E889F98980818370806440
:1003100080839FBF81E090E0DF91CF911F910F918B
:10032000FF90EF900895F62E0B8D10E00F5F1F4F9A
:100330000F731127E02E8C8D8E110CC00FB607FCA9
:10034000FACFE889F989808185FFF5CFCE010E9437
:100350004A01F1CFEB8DEC0FFD2FF11DE35AFF4F5A
:10036000F0829FB7F8940B8FEA89FB8980818062C5
:10037000CFCFCF93DF93EC01888D8823B9F0AA8982
:10038000BB89E889F9898C9185FD03C0808186FD50
:100390000DC00FB607FCF7CF8C9185FFF2CF80819F
:1003A00085FFEDCFCE010E944A01E9CFDF91CF91C9
:1003B0000895833081F028F4813099F08230A9F0DB
:1003C00008958730A9F08830C9F08430B1F4809165
:1003D00080008F7D03C0809180008F7780938000A4
:1003E000089584B58F7784BD089584B58F7DFBCF44
:1003F0008091B0008F778093B00008958091B00015
:100400008F7DF9CF1F93CF93DF93282F30E0F90131
:10041000E255FF4F8491F901E656FF4FD491F9015F
:10042000EA57FF4FC491CC23A9F0162F81110E94E7
:10043000D901EC2FF0E0EE0FFF1FEE58FF4FA59112
:10044000B4918FB7F894EC91111108C0D095DE23C8
:10045000DC938FBFDF91CF911F910895DE2BF8CFF2
:10046000CF93DF93EC018091E6019091E701029731
:1004700049F4C130D10509F43BC06CF560E0209728
:1004800009F437C08091E6019091E701049749F49F
:10049000C130D10509F45CC00CF037C0209709F4D5
:1004A00042C08091E6019091E701059709F0E5C00F
:1004B000CA30D10508F0E1C0FE01EF59FD4F0C94A0
:1004C0000408C002CC02DD02F3020E03100317037E
:1004D000230334033B03C230D105A9F060E0C330ED
:1004E000D10581F68091EA010E94020260E006C017
:1004F00061E08091EA010E94020261E08091EC01DA
:100500000E940202BFCF61E0EDCFC230D10539F1C8
:10051000C330D10509F0C5CF61E08091EA010E94A6
:10052000020260E022C061E08091EA010E940202C2
:1005300060E08091EC010E94020261E08091EE0196
:100540000E94020260E08091F0010E940202A9CFA5
:1005500060E08091EA010E94020261E0EACF60E07F
:100560008091EA010E94020261E08091EC010E9408
:10057000020260E08091EE010E94020261E0E3CF9E
:1005800060E08091EA010E94020261E08091EC014A
:100590000E94020261E00BC060E08091EA010E94CB
:1005A000020261E08091EC010E94020260E0809111
:1005B000EE010E94020260E010C060E08091EA015A
:1005C0000E94020261E08091EC010E94020260E060
:1005D0008091EE010E94020261E08091F0010E9490
:1005E000020261E015C060E08091EA010E9402020F
:1005F00061E08091EC010E94020260E08091EE01D6
:100600000E94020261E08091F0010E94020260E01B
:100610008091F201DF91CF910C94020261E0E4CF6E
:1006200061E08091EA010E94020260E0E2CF61E0B5
:100630008091EA010E94020260E08091EC010E9438
:10064000020261E0DBCF61E08091EA010E940202D8
:1006500060E08091EC010E94020261E08091EE0175
:100660000E94020260E0CFCF61E08091EA010E9427
:10067000020260E08BCF60E0F8CFDF91CF91089568
:10068000CF93DF9390E0FC01E656FF4F24918A5709
:100690009F4FFC0184918823D1F090E0880F991F2F
:1006A000FC01E859FF4FA591B491FC01EE58FF4FB2
:1006B000C591D49161110EC09FB7F8948C91E22F2F
:1006C000E0958E238C932881E223E8839FBFDF91FE
:1006D000CF9108958FB7F894EC91E22BEC938FBFF4
:1006E000F6CF3FB7F8948091370190913801A091EF
:1006F0003901B0913A0126B5A89B05C02F3F19F0EA
:100700000196A11DB11D3FBFBA2FA92F982F882791
:10071000BC01CD01620F711D811D911D42E0660F6C
:10072000771F881F991F4A95D1F708954F925F92BE
:100730006F927F928F929F92AF92BF92EF92FF92B1
:100740000F931F93CF93DF93EC0197FF04C0CC2747
:10075000DD27C81BD90B181619060CF061C081E003
:1007600090E09093DF018093DE0104E010E08AE0E6
:10077000E82EF12C209709F46FC00E94710380903D
:10078000F4019090F501A090F601B090F7012B01D3
:100790003C01481859086A087B088090E001909055
:1007A000E101A090E201B090E301481459046A0409
:1007B0007B0400F36093F4017093F5018093F601DC
:1007C0009093F7018091E8019091E9012091DE0179
:1007D0003091DF012130310559F501969093E901FF
:1007E0008093E8012091E4013091E501821793079D
:1007F00021F41092E9011092E80121978091E8011B
:100800009091E9012091E6013091E701B70125308F
:10081000310509F0B8010E94F0070E943002AACF0A
:10082000892B09F4A2CF1092DF011092DE019DCF37
:10083000892B41F48091E4019091E5019093E901C5
:100840008093E8018091E8019091E90101979093EC
:10085000E9018093E801D1CFDF91CF911F910F91F2
:10086000FF90EF90BF90AF909F908F907F906F9090
:100870005F904F900895FC0101900020E9F73197B7
:10088000AF01481B590BBC0181E491E00C948C0032
:100890008F929F92AF92BF920F931F93CF93DF934C
:1008A000CDB7DEB7A1970FB6F894DEBF0FBECDBFB0
:1008B00019A2423008F44AE08E010F5D1F4F842ECA
:1008C000912CB12CA12CA50194010E94BF07E62F09
:1008D000B901CA01EA30F4F4E05DD801EE938D016C
:1008E000232B242B252B79F790E080E0109719F02B
:1008F000CD010E943B04A1960FB6F894DEBF0FBE57
:10090000CDBFDF91CF911F910F91BF90AF909F907E
:100910008F900895E95CE1CFCF92DF92EF92FF9242
:10092000CF93DF936B017C016DE281E491E00E9443
:100930006C01EC0166277727CB016C197D098E09C4
:100940009F094AE00E9448048C0F9D1FDF91CF91C0
:10095000FF90EF90DF90CF9008951F920F920FB607
:100960000F9211242F933F934F935F936F937F9335
:100970008F939F93AF93BF93EF93FF9381E491E0A5
:100980000E944A01FF91EF91BF91AF919F918F918A
:100990007F916F915F914F913F912F910F900FBE7B
:1009A0000F901F9018951F920F920FB60F9211245F
:1009B0002F938F939F93EF93FF93E0915101F091C9
:1009C00052018081E0915701F091580182FD1BC0D6
:1009D000908180915A018F5F8F7320915B01821704
:1009E00041F0E0915A01F0E0EF5BFE4F958F80936C
:1009F0005A01FF91EF919F918F912F910F900FBE10
:100A00000F901F9018958081F4CF1F920F920FB610
:100A10000F9211242F933F938F939F93AF93BF9384
:100A200080913D0190913E01A0913F01B091400124
:100A30003091360123E0230F2D3758F50196A11D83
:100A4000B11D2093360180933D0190933E01A09308
:100A50003F01B09340018091370190913801A091FE
:100A60003901B0913A010196A11DB11D8093370162
:100A700090933801A0933901B0933A01BF91AF919F
:100A80009F918F913F912F910F900FBE0F901F90CC
:100A9000189526E8230F0296A11DB11DD2CFCF9342
:100AA000DF93E1E4F1E01382128288EE93E0A0E0AC
:100AB000B0E084839583A683B78386E091E0918339
:100AC000808385EC90E09587848784EC90E097871D
:100AD000868780EC90E0918B808B81EC90E0938B0B
:100AE000828B82EC90E0958B848B86EC90E0978BE8
:100AF000868B118E128E138E148ECEEDD1E01B8656
:100B00001A86198218821E8A1F8A188E198E88ECFE
:100B100090E09F838E8388E090E09D878C8789E0BA
:100B200090E09F878E878AE090E0998B888B8BE09E
:100B300090E09B8B8A8B61E088E00E94400361E03B
:100B40008E850E94400361E088890E94400361E035
:100B50008A890E9440031D8A1C8A84E090E099875C
:100B60008887DF91CF910895789484B5826084BDA1
:100B700084B5816084BD85B5826085BD85B58160A1
:100B800085BD80916E00816080936E00109281001F
:100B900080918100826080938100809181008160DA
:100BA000809381008091800081608093800080919B
:100BB000B10084608093B1008091B0008160809327
:100BC000B00080917A00846080937A0080917A00EE
:100BD000826080937A0080917A00816080937A00AD
:100BE00080917A00806880937A001092C1002091F1
:100BF000E4013091E501032E000C440B550B60E03D
:100C000077E883E993E00E949507CA01B9012CE3D4
:100C100030E040E050E00E9495072093E0013093DF
:100C2000E1014093E2015093E301E0915101F09121
:100C3000520182E08083E0914D01F0914E011082DB
:100C4000E0914F01F09150018FEC80831092590197
:100C5000E0915501F091560186E08083E0915301C7
:100C6000F0915401808180618083E0915301F09183
:100C70005401808188608083E0915301F091540198
:100C8000808180688083E0915301F09154018081DC
:100C90008F7D808361E088E00E94400361E089E00D
:100CA0000E94400361E08AE00E94400361E08BE023
:100CB0000E94400360E08DE00E944003412C27E841
:100CC000522E23E9622E23E0722EC0E430E0232E60
:100CD00030E0332E01E010E081E491E00E942A012F
:100CE000892B09F47BC00E94EA00FC0197FD05C135
:100CF0008D32910521F0C0970A9708F0F7C0C12CFA
:100D0000D12C7601D0E0E130F105D9F0ED32F105DA
:100D100009F4F1C0CF01C0970A9798F4AAE0B0E0B7
:100D2000A70196010E94B4076F01FF0FEE08FF08AC
:100D3000C60ED71EE81EF91E20E3C21AD108E1082C
:100D4000F10881E491E00E94C8000E94EA00FC01E1
:100D5000C0970A97C0F2E130F105A9F2DD2341F016
:100D6000F094E094D094C094C11CD11CE11CF11CFF
:100D7000D0923C01C0923B012091E4013091E50109
:100D8000032E000C440B550BC301B2010E949507C2
:100D90000D2C000CEE08FF08CA01B901A70196014D
:100DA0000E9495072093E0013093E1014093E20116
:100DB0005093E30184E191E00E943B0460913B0188
:100DC00070913C01072E000C880B990B97FF99C07E
:100DD0000E948C0484E291E00E943B04EBEBF0E083
:100DE0008491E7EAF0E0D491E3E9F0E0F490FF20A9
:100DF00009F48BC081110E94D901EF2DF0E0EE0FB4
:100E0000FF1FE458FF4FA591B4918C91D82309F4AA
:100E10007CC01093010100930001C0937C0080917D
:100E20007A00806480937A0080917A0086FDFCCFFE
:100E3000A091780080917900B82F28EC30E00E94D2
:100E40000A0820E034E040E050E00E949507690184
:100E50007A0187E291E00E943B04F7FE5BC0C70184
:100E6000B6010E948C0484E291E00E943B048091D0
:100E70000001909101018130910509F051C088274E
:100E800099278C199D090E9496030E9471034B01BA
:100E90005C0184EFC82EDD24D394E12CF12C0E9458
:100EA0007103681979098A099B09683E73408105B5
:100EB0009105A8F3F1E0CF1AD108E108F10828EE76
:100EC000820E23E0921EA11CB11CC114D104E104C6
:100ED000F10429F72114310409F4FECE0E943601F1
:100EE000882309F4F9CE0E940000F6CE81E491E057
:100EF0000E94C800F8CED1E024CFC12CD12C7601BD
:100F000037CF4AE00E94480465CF10920101109249
:100F1000000183CF4AE0C701B6010E944804A3CF75
:100F2000892B09F0B2CFC601AECF052E97FB1EF478
:100F300000940E94AC0757FD07D00E94BF0707FC32
:100F400003D04EF40C94AC07509540953095219504
:100F50003F4F4F4F5F4F08959095809570956195E5
:100F60007F4F8F4F9F4F08950E94E107A59F900DDF
:100F7000B49F900DA49F800D911D11240895A1E2AE
:100F80001A2EAA1BBB1BFD010DC0AA1FBB1FEE1F03
:100F9000FF1FA217B307E407F50720F0A21BB30B4E
:100FA000E40BF50B661F771F881F991F1A9469F7CA
:100FB00060957095809590959B01AC01BD01CF0126
:100FC0000895A29FB001B39FC001A39F700D811D22
:100FD0001124911DB29F700D811D1124911D089542
:100FE00097FB072E16F4009407D077FD09D00E94D6
:100FF000110807FC05D03EF4909581959F4F089508
:10100000709561957F4F0895EE0FFF1F0590F49145
:10101000E02D09940E94E107B7FF0895821B930B0E
:101020000895AA1BBB1B51E107C0AA1FBB1FA6172F
:10103000B70710F0A61BB70B881F991F5A95A9F781
:0E10400080959095BC01CD010895F894FFCFE6
:10104E000100000000006C018C00B900B9012A01FA
:10105E00C800DC0074686520737065656420697370
:10106E00203A20000D0A007374657073546F4D6F33
:06107E0076653A20000037
:00000001FF
