:100000000C9489000C949B000C949B000C949B0016
:100010000C949B000C949B000C949B000C949B00F4
:100020000C949B000C949B000C949B000C949B00E4
:100030000C949B000C949B000C949B000C949B00D4
:100040000C9408010C949B000C949B000C949B0056
:100050000C949B000C949B000C949B000C949B00B4
:100060000C949B000C949B0008000000BE92244955
:10007000123EABAAAA2ABECDCCCC4C3E00000080DA
:10008000BEABAAAAAA3E00000000BF000000803F4D
:100090000000000000084178D3BB4387D1133D190D
:1000A0000E3CC3BD4282AD2B3E68EC8276BED98F3A
:1000B000E1A93E4C80EFFFBE01C4FF7F3F0000007E
:1000C0000000000000080002010000030407000017
:1000D00000000000000000000000250028002B00A8
:1000E00000000000240027002A0004040404040483
:1000F00004040202020202020303030303030102D7
:1001000004081020408001020408102001020408A5
:10011000102011241FBECFEFD8E0DEBFCDBF21E0FD
:10012000A0E0B1E001C01D92A930B207E1F70E9442
:1001300052010C9417050C94000090E0FC01E25071
:10014000FF4F249186519F4FFC018491882399F0A1
:1001500090E0880F991FFC01E052FF4FA591B491E8
:10016000FC01EA52FF4F859194918FB7F894EC917E
:10017000E22BEC938FBF089590E0FC01EE53FF4F0C
:100180002491FC01E250FF4F3491FC01E651FF4FF6
:10019000E491EE23C9F0222339F0233001F1A8F4D1
:1001A000213019F1223029F1F0E0EE0FFF1FEA5261
:1001B000FF4FA591B4918FB7F894EC91611126C0CF
:1001C00030953E233C938FBF08952730A9F0283007
:1001D000C9F0243049F7809180008F7D03C0809161
:1001E00080008F7780938000DFCF84B58F7784BDC8
:1001F000DBCF84B58F7DFBCF8091B0008F7780936C
:10020000B000D2CF8091B0008F7DF9CF3E2BDACFF6
:100210001F920F920FB60F9211242F933F938F933B
:100220009F93AF93BF938091050190910601A09198
:100230000701B09108013091040123E0230F2D370D
:1002400058F50196A11DB11D20930401809305016D
:1002500090930601A0930701B093080180910001DB
:1002600090910101A0910201B09103010196A11D9D
:10027000B11D8093000190930101A0930201B093FE
:100280000301BF91AF919F918F913F912F910F905B
:100290000FBE0F901F90189526E8230F0296A11D00
:1002A000B11DD2CF789484B5826084BD84B581605D
:1002B00084BD85B5826085BD85B5816085BD809131
:1002C0006E00816080936E001092810080918100A9
:1002D00082608093810080918100816080938100A1
:1002E000809180008160809380008091B100846063
:1002F0008093B1008091B00081608093B0008091C4
:100300007A00846080937A0080917A008260809382
:100310007A0080917A00816080937A0080917A00DF
:10032000806880937A001092C10080E00E949D0056
:1003300081E00E949D0083E00E949D00D0E485EC56
:10034000C82E80E0D82E00E810E0C0E890E0E92E4A
:1003500090E0F92ED0937C0080917A0080648093A5
:100360007A0080917A0086FDFCCF809178006091C0
:100370007900762F682F072E000C880B990B0E94AE
:1003800070030E942D044B015C012CE63FEC48E514
:1003900054E30E947504A50194010E947504A5010F
:1003A00094010E9475042B013C0126ED34E649E7D7
:1003B00059E3C501B4010E9475042BEC38E444E80C
:1003C0005AE30E948B029B01AC01C301B2010E945F
:1003D0008B029B01AC0160E070E080E89FE30E942B
:1003E000FC0223E333E948E853E40E948A024B010C
:1003F0005C0120E030E0A9010E94200418165CF4A2
:1004000020E030E048EC51E4C501B4010E94F7025D
:1004100060E087FD3BC020E030E04CE452E4C501E1
:10042000B4010E94200418160CF05DC020E030E0FA
:1004300048EC52E4C501B4010E94F70287FF53C0A3
:1004400083E00E949D00F6018491833091F148F48D
:100450008130B9F0823041F161E083E00E94BC005C
:1004600014C0873081F18830B1F18430A9F78091D0
:10047000800080628093800010938B0000938A003C
:1004800004C084B5806884BDC7BD61E080E00E947F
:10049000BC0060E081E00E94BC00E114F10409F4BA
:1004A00059CF0E94000056CF84B5806284BDC8BD7C
:1004B000ECCF809180008068809380001093890049
:1004C00000938800E2CF8091B00080688093B000F4
:1004D000C093B300DACF8091B00080628093B00007
:1004E000C093B400D2CF20E030E048EC52E4C50124
:1004F000B4010E942004181684F683E00E949D0037
:1005000061E083E00E94BC0060E080E00E94BC00EB
:1005100061E0C0CF5058BB27AA270E94A2020C94CA
:10052000E6030E94D80338F00E94DF0320F039F47C
:100530009F3F19F426F40C94D5030EF4E095E7FBE5
:100540000C94CF03E92F0E94F70358F3BA17620700
:1005500073078407950720F079F4A6F50C94190425
:100560000EF4E0950B2EBA2FA02D0B01B9019001CE
:100570000C01CA01A0011124FF27591B99F0593F12
:1005800050F4503E68F11A16F040A22F232F342F5A
:100590004427585FF3CF469537952795A795F040A8
:1005A0005395C9F77EF41F16BA0B620B730B840BBD
:1005B000BAF09150A1F0FF0FBB1F661F771F881F75
:1005C000C2F70EC0BA0F621F731F841F48F48795CD
:1005D00077956795B795F7959E3F08F0B0CF9395BF
:1005E000880F08F09927EE0F9795879508950E9438
:1005F000AB0308F481E008950E9410030C94E60315
:100600000E94DF0358F00E94D80340F029F45F3FB6
:1006100029F00C94CF0351110C941A040C94D503B7
:100620000E94F70368F39923B1F3552391F3951BC7
:10063000550BBB27AA2762177307840738F09F5F03
:100640005F4F220F331F441FAA1FA9F335D00E2E70
:100650003AF0E0E832D091505040E695001CCAF7DD
:100660002BD0FE2F29D0660F771F881FBB1F2617A0
:1006700037074807AB07B0E809F0BB0B802DBF0177
:10068000FF2793585F4F3AF09E3F510578F00C9446
:10069000CF030C941A045F3FE4F3983ED4F386959D
:1006A00077956795B795F7959F5FC9F7880F911D67
:1006B0009695879597F90895E1E0660F771F881F53
:1006C000BB1F621773078407BA0720F0621B730B06
:1006D000840BBA0BEE1F88F7E0950895E89409C0E3
:1006E00097FB3EF490958095709561957F4F8F4F65
:1006F0009F4F9923A9F0F92F96E9BB279395F6957B
:10070000879577956795B795F111F8CFFAF4BB0FF8
:1007100011F460FF1BC06F5F7F4F8F4F9F4F16C05C
:10072000882311F096E911C0772321F09EE8872FE6
:10073000762F05C0662371F096E8862F70E060E0A2
:100740002AF09A95660F771F881FDAF7880F96951B
:10075000879597F90895990F0008550FAA0BE0E8BF
:10076000FEEF16161706E807F907C0F01216130673
:10077000E407F50798F0621B730B840B950B39F4B3
:100780000A2661F0232B242B252B21F408950A2619
:1007900009F4A140A6958FEF811D811D089597F959
:1007A0009F6780E870E060E008959FEF80EC089517
:1007B00000240A9416161706180609060895002440
:1007C0000A9412161306140605060895092E0394BA
:1007D000000C11F4882352F0BB0F40F4BF2B11F42E
:1007E00060FF04C06F5F7F4F8F4F9F4F089557FD8D
:1007F0009058440F551F59F05F3F71F04795880F8F
:1008000097FB991F61F09F3F79F087950895121625
:1008100013061406551FF2CF4695F1DF08C01616D1
:1008200017061806991FF1CF869571056105089482
:100830000895E894BB2766277727CB0197F9089599
:100840000E94AB0308F48FEF089516F00C94E204B5
:100850000C94D50368940C94CF030E94FF03A8F373
:100860009923C1F3AEF3DF93CF931F930F93FF92BE
:10087000C92FDD2788232AF02197660F771F881F4D
:10088000DAF720E030E040E85FEB9FE3883920F0C2
:10089000803E38F021968F770E948B02E8E6F0E0E8
:1008A00004C00E948B02E5E9F0E00E94F0048B0195
:1008B000BE01EC01FB2E6F5771097595771F880BF0
:1008C000990B0E94700328E132E741E35FE30E9445
:1008D0008804AF2D9801AE01FF900F911F91CF9129
:1008E000DF910E94A2020C94E6030E9488040C94FB
:1008F000E6030E94D80338F00E94DF0320F095231E
:1009000011F00C94CF030C94D50311240C941A0409
:100910000E94F70370F3959FC1F3950F50E0551FA8
:10092000629FF001729FBB27F00DB11D639FAA2744
:10093000F00DB11DAA1F649F6627B00DA11D661F93
:10094000829F2227B00DA11D621F739FB00DA11DB4
:10095000621F839FA00D611D221F749F3327A00D6E
:10096000611D231F849F600D211D822F762F6A2F0A
:1009700011249F5750409AF0F1F088234AF0EE0F6F
:10098000FF1FBB1F661F771F881F91505040A9F79C
:100990009E3F510580F00C94CF030C941A045F3FE6
:1009A000E4F3983ED4F3869577956795B795F795D8
:1009B000E7959F5FC1F7FE2B880F911D9695879550
:1009C00097F908959F3F31F0915020F487957795DE
:1009D0006795B795880F911D9695879597F9089516
:1009E000DF93CF931F930F93FF92EF92DF927B01E0
:1009F0008C01689406C0DA2EEF010E948804FE0183
:100A0000E894A5912591359145915591A6F3EF0173
:100A10000E94A202FE019701A801DA9469F7DF9013
:100A2000EF90FF900F911F91CF91DF910895F8946F
:020A3000FFCFF6
:00000001FF
