:020000040000FA
:100000000C948A000C94B2000C94B2000C94B200D0
:100010000C94B2000C94B2000C94B2000C94B20098
:100020000C94B2000C94B2000C94B2000C94B20088
:100030000C94B2000C94B2000C94B2000C94B20078
:100040000C947D020C94B2000C94ED020C94C70247
:100050000C94B2000C94B2000C94B2000C94B20058
:100060000C94B2000C94B20008000000BE92244927
:10007000123EABAAAA2ABECDCCCC4C3E00000080DA
:10008000BEABAAAAAA3E00000000BF000000803F4D
:100090000000000000084178D3BB4387D1133D190D
:1000A0000E3CC3BD4282AD2B3E68EC8276BED98F3A
:1000B000E1A93E4C80EFFFBE01C4FF7F3F0000007E
:1000C0000000000000080002010000030407000017
:1000D00000000000000000000000250028002B00A8
:1000E00000000000240027002A0004040404040483
:1000F00004040202020202020303030303030102D7
:1001000004081020408001020408102001020408A5
:100110001020500511241FBECFEFD8E0DEBFCDBFA9
:1001200011E0A0E0B1E0E0EDF0E102C005900D9239
:10013000A232B107D9F721E0A2E2B1E001C01D92DD
:10014000A83CB207E1F710E0CAE8D0E004C021976C
:10015000FE010E946008C938D107C9F70E941F0339
:100160000C9466080C94000090E0FC01E250FF4FF4
:10017000249186519F4FFC018491882399F090E04F
:10018000880F991FFC01E052FF4FA591B491FC012B
:10019000EA52FF4F859194918FB7F894EC91E22B3E
:1001A000EC938FBF0895AF92BF92CF92DF92EF9200
:1001B000FF920F931F93CF93DF936C017B018B0111
:1001C000040F151FEB015E01AE18BF08C017D10761
:1001D00059F06991D601ED91FC910190F081E02DEB
:1001E000C6010995892B79F7C501DF91CF911F9140
:1001F0000F91FF90EF90DF90CF90BF90AF90089558
:10020000FC01538D448D252F30E0842F90E0821B1C
:10021000930B541710F0CF96089501970895FC01A1
:10022000918D828D981761F0A28DAE0FBF2FB11DF9
:100230005D968C91928D9F5F9F73928F90E0089551
:100240008FEF9FEF0895FC01918D828D981731F00B
:10025000828DE80FF11D858D90E008958FEF9FEF5F
:100260000895FC01918D228D892F90E0805C9F4F35
:10027000821B91098F73992708958BE291E00E9468
:10028000310121E0892B09F420E0822F089580E0DC
:1002900090E0892B29F00E943D0181110C9400000F
:1002A0000895FC01A48DA80FB92FB11DA35ABF4F0B
:1002B0002C91848D90E001968F739927848FA68965
:1002C000B7892C93A089B1898C91837080648C93B9
:1002D000938D848D981306C00288F389E02D808168
:1002E0008F7D80830895EF92FF920F931F93CF939A
:1002F000DF93EC0181E0888F9B8D8C8D98131AC061
:10030000E889F989808185FF15C09FB7F894EE8947
:10031000FF896083E889F9898081837080648083A4
:100320009FBF81E090E0DF91CF911F910F91FF90EF
:10033000EF900895F62E0B8D10E00F5F1F4F0F7397
:100340001127E02E8C8D8E110CC00FB607FCFACF52
:10035000E889F989808185FFF5CFCE010E9451019E
:10036000F1CFEB8DEC0FFD2FF11DE35AFF4FF08223
:100370009FB7F8940B8FEA89FB8980818062CFCF89
:10038000CF93DF93EC01888D8823B9F0AA89BB89CC
:10039000E889F9898C9185FD03C0808186FD0DC0B7
:1003A0000FB607FCF7CF8C9185FFF2CF808185FFD8
:1003B000EDCFCE010E945101E9CFDF91CF91089599
:1003C00090E0FC01EE53FF4F2491FC01E250FF4FFF
:1003D0003491FC01E651FF4FE491EE23C9F0222352
:1003E00039F0233001F1A8F4213019F1223029F13C
:1003F000F0E0EE0FFF1FEA52FF4FA591B4918FB7C7
:10040000F894EC91611126C030953E233C938FBF48
:1004100008952730A9F02830C9F0243049F7809199
:1004200080008F7D03C0809180008F778093800053
:10043000DFCF84B58F7784BDDBCF84B58F7DFBCFD5
:100440008091B0008F778093B000D2CF8091B000C0
:100450008F7DF9CF3E2BDACFFC0101900020E9F728
:100460003197AF01481B590BBC018BE291E00C9412
:10047000D3008F929F92AF92BF920F931F93CF930F
:10048000DF93CDB7DEB7A1970FB6F894DEBF0FBEEE
:10049000CDBF19A2423008F44AE08E010F5D1F4F14
:1004A000842E912CB12CA12CA50194010E943E0810
:1004B000E62FB901CA01EA30F4F4E05DD801EE9309
:1004C0008D01232B242B252B79F790E080E01097CA
:1004D00019F0CD010E942C02A1960FB6F894DEBF50
:1004E0000FBECDBFDF91CF911F910F91BF90AF9005
:1004F0009F908F900895E95CE1CF1F920F920FB605
:100500000F9211242F933F938F939F93AF93BF9399
:100510008091270190912801A0912901B0912A0191
:100520003091260123E0230F2D3758F50196A11DA8
:10053000B11D209326018093270190932801A09359
:100540002901B0932A018091220190912301A09169
:100550002401B09125010196A11DB11D80932201B6
:1005600090932301A0932401B0932501BF91AF91F3
:100570009F918F913F912F910F900FBE0F901F90E1
:10058000189526E8230F0296A11DB11DD2CF1F9208
:100590000F920FB60F9211242F933F934F935F93B7
:1005A0006F937F938F939F93AF93BF93EF93FF933B
:1005B0008BE291E00E945101FF91EF91BF91AF91C9
:1005C0009F918F917F916F915F914F913F912F916B
:1005D0000F900FBE0F901F9018951F920F920FB69D
:1005E0000F9211242F938F939F93EF93FF93E0919A
:1005F0003B01F0913C018081E0914101F091420189
:1006000082FD1BC09081809144018F5F8F73209188
:100610004501821741F0E0914401F0E0E55DFE4FB5
:10062000958F80934401FF91EF919F918F912F912E
:100630000F900FBE0F901F9018958081F4CF789483
:1006400084B5826084BD84B5816084BD85B58260D7
:1006500085BD85B5816085BD80916E008160809388
:100660006E001092810080918100826080938100F1
:100670008091810081608093810080918000816001
:10068000809380008091B10084608093B10080915C
:10069000B00081608093B00080917A008460809384
:1006A0007A0080917A00826080937A0080917A004B
:1006B000816080937A0080917A00806880937A00CC
:1006C0001092C10080E00E94B40081E00E94B4005A
:1006D00083E00E94B400E0913B01F0913C0182E094
:1006E0008083E0913701F09138011082E091390167
:1006F000F0913A018FEC808310924301E0913F0129
:10070000F091400186E08083E0913D01F0913E014F
:10071000808180618083E0913D01F0913E01808184
:1007200088608083E0913D01F0913E018081806886
:100730008083E0913D01F0913E0180818F7D808337
:10074000D0E485ECA82E80E0B82E00E810E0C0E8E8
:1007500090E0892E90E0992ED0937C0080917A00D1
:10076000806480937A0080917A0086FDFCCF80912E
:10077000780060917900762F682F072E000C880B87
:10078000990B0E9492069B01AC0160E070EC8FE730
:1007900094E40E94EF0520E030E040E85FE30E942F
:1007A0007D059B01AC0160E070E48CE196E40E9461
:1007B000EF050E944F076B017C012CE63FEC48E5FA
:1007C00054E30E949707A70196010E949707A7018B
:1007D00096010E9497072B013C0126ED34E649E77C
:1007E00059E3C701B6010E9497072BEC38E444E8AF
:1007F0005AE30E947E059B01AC01C301B2010E9435
:100800007E059B01AC0160E070E080E89FE30E9400
:10081000EF0523E333E948E853E40E947D056B01CB
:100820007C0120E030E0A9010E94420787FD0CC056
:1008300020E030E048E452E4C701B6010E94EA0536
:1008400060E018160CF03FC020E030E04CE452E4C9
:10085000C701B6010E94420787FD78C020E030E062
:1008600048EC52E4C701B6010E94EA0518160CF4E0
:100870006DC083E00E94B400F5018491833009F4D7
:100880004BC050F48130D1F0823009F440C061E0B7
:1008900083E00E94E00116C0873009F447C0883029
:1008A00009F44CC0843099F7809180008062809375
:1008B000800010938B0000938A0004C084B5806888
:1008C00084BDC7BD61E084E00E94E00160E085E096
:1008D0000E94E001A7019601C701B6010E94040829
:1008E000882309F44BC082E191E00E942C028EE142
:1008F00091E00E942C028114910409F42DCF0E94F2
:100900003D01882309F428CF0E94000025CF84B53B
:10091000806284BDC8BDD6CF8091800080688093FE
:1009200080001093890000938800CCCF8091B000A4
:1009300080688093B000C093B300C4CF8091B000B2
:1009400080628093B000C093B400BCCF20E030E060
:1009500048EC52E4C701B6010E94420718160CF099
:10096000B9CF83E00E94B40061E083E00E94E0011F
:1009700060E084E00E94E00161E0A9CF2601370138
:10098000E89477F82FEF3FEF4FE75FE7C301B2013D
:100990000E94040881110DC02FEF3FEF4FE75FE782
:1009A000C301B2010E94EA0518161CF486E191E029
:1009B0009CCF2FEF3FEF4FE75FE4C701B6010E94E6
:1009C000420718161CF48AE191E08FCF2FEF3FEF1A
:1009D0004FE75FECC701B6010E94EA0587FDF3CF40
:1009E00020E030E0A901C701B6010E94EA0587FFB7
:1009F00009C06DE28BE291E00E947301F7FAF09476
:100A0000F7F8F0942AE037ED43EA5BE3C701B6015B
:100A10000E947E052B013C010E9461066B017C0156
:100A20000E9490069B01AC01C301B2010E947D05AA
:100A30002B013C014AE0C701B6010E9439026EE277
:100A40008BE291E00E94730120E030E040E251E44B
:100A5000C301B2010E9497072B013C010E9461066D
:100A60006B01F12CE12C4AE0C701B6010E9439026A
:100A7000C701B6010E9490069B01AC01C301B201FF
:100A80000E947D0520E030E040E251E40E9497079B
:100A90000E94610690E080E04AE00E94390227CF80
:100AA000EBE2F1E01382128288EE93E0A0E0B0E086
:100AB00084839583A683B78384E091E091838083C8
:100AC00085EC90E09587848784EC90E09787868713
:100AD00080EC90E0918B808B81EC90E0938B828B0B
:100AE00082EC90E0958B848B86EC90E0978B868BE4
:100AF000118E128E138E148E08955058BB27AA277C
:100B00000E9495050C9408070E94FA0638F00E948E
:100B1000010720F039F49F3F19F426F40C94F706EE
:100B20000EF4E095E7FB0C94F106E92F0E941907FB
:100B300058F3BA17620773078407950720F079F412
:100B4000A6F50C943B070EF4E0950B2EBA2FA02DC2
:100B50000B01B90190010C01CA01A0011124FF276A
:100B6000591B99F0593F50F4503E68F11A16F04065
:100B7000A22F232F342F4427585FF3CF4695379564
:100B80002795A795F0405395C9F77EF41F16BA0B29
:100B9000620B730B840BBAF09150A1F0FF0FBB1FD7
:100BA000661F771F881FC2F70EC0BA0F621F731F20
:100BB000841F48F4879577956795B795F7959E3F7D
:100BC00008F0B0CF9395880F08F09927EE0F97950E
:100BD000879508950E94CD0608F481E008950E944B
:100BE00003060C9408070E94010758F00E94FA06B9
:100BF00040F029F45F3F29F00C94F10651110C9458
:100C00003C070C94F7060E94190768F39923B1F387
:100C1000552391F3951B550BBB27AA276217730722
:100C2000840738F09F5F5F4F220F331F441FAA1FB6
:100C3000A9F335D00E2E3AF0E0E832D09150504072
:100C4000E695001CCAF72BD0FE2F29D0660F771F20
:100C5000881FBB1F261737074807AB07B0E809F006
:100C6000BB0B802DBF01FF2793585F4F3AF09E3F8B
:100C7000510578F00C94F1060C943C075F3FE4F3C7
:100C8000983ED4F3869577956795B795F7959F5FCE
:100C9000C9F7880F911D9695879597F90895E1E01A
:100CA000660F771F881FBB1F621773078407BA0779
:100CB00020F0621B730B840BBA0BEE1F88F7E095D4
:100CC00008950E94210788F09F5798F0B92F99271F
:100CD000B751B0F0E1F0660F771F881F991F1AF027
:100CE000BA95C9F714C0B13091F00E943B07B1E04A
:100CF00008950C943B07672F782F8827B85F39F049
:100D0000B93FCCF3869577956795B395D9F73EF4BF
:100D100090958095709561957F4F8F4F9F4F089567
:100D2000E89409C097FB3EF4909580957095619585
:100D30007F4F8F4F9F4F9923A9F0F92F96E9BB273B
:100D40009395F695879577956795B795F111F8CFB7
:100D5000FAF4BB0F11F460FF1BC06F5F7F4F8F4F22
:100D60009F4F16C0882311F096E911C0772321F018
:100D70009EE8872F762F05C0662371F096E8862FB0
:100D800070E060E02AF09A95660F771F881FDAF707
:100D9000880F9695879597F90895990F0008550F34
:100DA000AA0BE0E8FEEF16161706E807F907C0F0F1
:100DB00012161306E407F50798F0621B730B840BF9
:100DC000950B39F40A2661F0232B242B252B21F4D3
:100DD00008950A2609F4A140A6958FEF811D811D73
:100DE000089597F99F6780E870E060E008959FEFAD
:100DF00080EC089500240A941616170618060906B2
:100E0000089500240A941216130614060506089580
:100E1000092E0394000C11F4882352F0BB0F40F408
:100E2000BF2B11F460FF04C06F5F7F4F8F4F9F4F48
:100E3000089557FD9058440F551F59F05F3F71F0CA
:100E40004795880F97FB991F61F09F3F79F0879531
:100E50000895121613061406551FF2CF4695F1DFBA
:100E600008C0161617061806991FF1CF869571054A
:100E7000610508940895E894BB2766277727CB017E
:100E800097F908950E94CD0608F48FEF089516F0A3
:100E90000C9409080C94F70668940C94F1060E94CF
:100EA0002107A8F39923C1F3AEF3DF93CF931F93E8
:100EB0000F93FF92C92FDD2788232AF02197660F11
:100EC000771F881FDAF720E030E040E85FEB9FE310
:100ED000883920F0803E38F021968F770E947E0579
:100EE000E8E6F0E004C00E947E05E5E9F0E00E943B
:100EF00017088B01BE01EC01FB2E6F577109759528
:100F0000771F880B990B0E94920628E132E741E394
:100F10005FE30E94AA07AF2D9801AE01FF900F91E9
:100F20001F91CF91DF910E9495050C9408070E94B4
:100F3000AA070C9408070E94FA0638F00E940107DD
:100F400020F0952311F00C94F1060C94F70611246F
:100F50000C943C070E94190770F3959FC1F3950FFD
:100F600050E0551F629FF001729FBB27F00DB11D2D
:100F7000639FAA27F00DB11DAA1F649F6627B00DBD
:100F8000A11D661F829F2227B00DA11D621F739FA6
:100F9000B00DA11D621F839FA00D611D221F749FB4
:100FA0003327A00D611D231F849F600D211D822FFB
:100FB000762F6A2F11249F5750409AF0F1F0882322
:100FC0004AF0EE0FFF1FBB1F661F771F881F91504F
:100FD0005040A9F79E3F510580F00C94F1060C9407
:100FE0003C075F3FE4F3983ED4F386957795679589
:100FF000B795F795E7959F5FC1F7FE2B880F911D79
:101000009695879597F908950E94CD06880B990BC0
:1010100008959F3F31F0915020F48795779567951B
:10102000B795880F911D9695879597F90895DF9349
:10103000CF931F930F93FF92EF92DF927B018C016E
:10104000689406C0DA2EEF010E94AA07FE01E89418
:10105000A5912591359145915591A6F3EF010E94F7
:101060009505FE019701A801DA9469F7DF90EF90EA
:10107000FF900F911F91CF91DF910895A1E21A2E59
:10108000AA1BBB1BFD010DC0AA1FBB1FEE1FFF1F2C
:10109000A217B307E407F50720F0A21BB30BE40B7C
:1010A000F50B661F771F881F991F1A9469F76095C3
:1010B0007095809590959B01AC01BD01CF0108957D
:1010C000EE0FFF1F0590F491E02D0994F894FFCFE7
:1010D000000000007301D3000001C00131010F01C5
:1010E00023016E616E00696E66006F7666000D0A00
:0210F0000000FE
:107E0000112484B714BE81FFF0D085E080938100F7
:107E100082E08093C00088E18093C10086E0809377
:107E2000C20080E18093C4008EE0C9D0259A86E02C
:107E300020E33CEF91E0309385002093840096BBD3
:107E4000B09BFECF1D9AA8958150A9F7CC24DD24C4
:107E500088248394B5E0AB2EA1E19A2EF3E0BF2EE7
:107E6000A2D0813461F49FD0082FAFD0023811F036
:107E7000013811F484E001C083E08DD089C08234E0
:107E800011F484E103C0853419F485E0A6D080C0E4
:107E9000853579F488D0E82EFF2485D0082F10E0AE
:107EA000102F00270E291F29000F111F8ED06801E7
:107EB0006FC0863521F484E090D080E0DECF843638
:107EC00009F040C070D06FD0082F6DD080E0C81688
:107ED00080E7D80618F4F601B7BEE895C0E0D1E017
:107EE00062D089930C17E1F7F0E0CF16F0E7DF06D8
:107EF00018F0F601B7BEE89568D007B600FCFDCFD4
:107F0000A601A0E0B1E02C9130E011968C91119780
:107F100090E0982F8827822B932B1296FA010C0160
:107F200087BEE89511244E5F5F4FF1E0A038BF0790
:107F300051F7F601A7BEE89507B600FCFDCF97BE46
:107F4000E89526C08437B1F42ED02DD0F82E2BD052
:107F50003CD0F601EF2C8F010F5F1F4F84911BD097
:107F6000EA94F801C1F70894C11CD11CFA94CF0C13
:107F7000D11C0EC0853739F428D08EE10CD085E9AC
:107F80000AD08FE07ACF813511F488E018D01DD067
:107F900080E101D065CF982F8091C00085FFFCCF94
:107FA0009093C60008958091C00087FFFCCF809118
:107FB000C00084FD01C0A8958091C6000895E0E648
:107FC000F0E098E1908380830895EDDF803219F02E
:107FD00088E0F5DFFFCF84E1DECF1F93182FE3DFCA
:107FE0001150E9F7F2DF1F91089580E0E8DFEE27F6
:047FF000FF270994CA
:027FFE00040479
:00000001FF
