:100000000C9462000C948A000C948A000C948A0070
:100010000C948A000C948A000C948A000C948A0038
:100020000C948A000C948A000C948A000C94A80307
:100030000C948A000C948A000C948A000C948A0018
:100040000C945E030C948A000C942C030C9406030D
:100050000C948A000C948A000C948A000C948A00F8
:100060000C948A000C948A000000000024002700F1
:100070002A0000000000250028002B0000000000DE
:1000800023002600290004040404040404040202DA
:100090000202020203030303030301020408102007
:1000A0004080010204081020010204081020000012
:1000B0000008000201000003040700000000000027
:1000C0000000640411241FBECFEFD8E0DEBFCDBF17
:1000D00011E0A0E0B1E0E8E0FEE002C005900D9282
:1000E000AE32B107D9F721E0AEE2B1E001C01D9216
:1000F000AD3FB207E1F710E0C2E6D0E004C02197BF
:10010000FE010E94FC06C136D107C9F70E94C10456
:100110000C9402070C9400008F929F92AF92BF92B2
:10012000FF920F931F93CF93DF93F090FA012BE090
:100130002F1508F44CC02091FC0108E512E0021BC9
:10014000110927FD1395000F111F000F111F20919A
:10015000FB01C8E8D0E0C21BD10927FDD395CC0F25
:10016000DD1FCC0FDD1F4E010D2E000CAA08BB08B1
:100170009801012E000C440B550B281939094A0926
:100180005B09DC010E94B70624EB30E040E050E060
:100190000E948D06820E931EA41EB51E8C169D060F
:1001A0002CF0E801801691060CF4E4012297CC0FA4
:1001B000DD1F2FB7F8948F2D90E0FC01EE0FFF1F8D
:1001C000E80FF91FEB52FE4FD283C1832FBFDF919F
:1001D000CF911F910F91FF90BF90AF909F908F9004
:1001E0000895FC01538D448D252F30E0842F90E03D
:1001F000821B930B541710F0CF9608950197089522
:10020000FC01918D828D981761F0A28DAE0FBF2FEA
:10021000B11D5D968C91928D9F5F9F73928F90E040
:1002200008958FEF9FEF0895FC01918D828D9817AF
:1002300031F0828DE80FF11D858D90E008958FEFEC
:100240009FEF0895FC01918D228D892F90E0805CB5
:100250009F4F821B91098F7399270895FC01A48DEC
:10026000A80FB92FB11DA35ABF4F2C91848D90E0D8
:1002700001968F739927848FA689B7892C93A089BB
:10028000B1898C91837080648C93938D848D981345
:1002900006C00288F389E02D80818F7D80830895D8
:1002A000EF92FF920F931F93CF93DF93EC0181E0C6
:1002B000888F9B8D8C8D98131AC0E889F98980816D
:1002C00085FF15C09FB7F894EE89FF896083E889A0
:1002D000F98980818370806480839FBF81E090E092
:1002E000DF91CF911F910F91FF90EF900895F62E1F
:1002F0000B8D10E00F5F1F4F0F731127E02E8C8DB9
:100300008E110CC00FB607FCFACFE889F9898081FD
:1003100085FFF5CFCE010E942E01F1CFEB8DEC0FC2
:10032000FD2FF11DE35AFF4FF0829FB7F8940B8F1A
:10033000EA89FB8980818062CFCFCF93DF93EC0184
:10034000888D8823B9F0AA89BB89E889F9898C91BD
:1003500085FD03C0808186FD0DC00FB607FCF7CF79
:100360008C9185FFF2CF808185FFEDCFCE010E9479
:100370002E01E9CFDF91CF91089588E391E00E94AB
:10038000220121E0892B09F420E0822F089580E0EA
:1003900090E0892B29F00E94BD0181110C9400008E
:1003A0000895AF92BF92CF92DF92EF92FF920F9398
:1003B0001F93CF93DF936C017B018B01040F151FFB
:1003C000EB015E01AE18BF08C017D10759F0699163
:1003D000D601ED91FC910190F081E02DC6010995C7
:1003E000892B79F7C501DF91CF911F910F91FF9074
:1003F000EF90DF90CF90BF90AF900895833081F061
:1004000028F4813099F08230A9F008958730A9F05E
:100410008830C9F08430B1F4809180008F7D03C0B2
:10042000809180008F7780938000089584B58F77C6
:1004300084BD089584B58F7DFBCF8091B0008F7708
:100440008093B00008958091B0008F7DF9CFCF9355
:10045000DF93282F30E0F901E255FF4F8491F90135
:10046000E656FF4FD491F901EA57FF4FC491CC23D0
:10047000A1F081110E94FE01EC2FF0E0EE0FFF1FB2
:10048000E458FF4FA591B491EC91ED2381E090E009
:1004900009F480E0DF91CF91089580E090E0FACFF9
:1004A0001F93CF93DF93282F30E0F901E255FF4FE0
:1004B0008491F901E656FF4FD491F901EA57FF4FB5
:1004C000C491CC23A9F0162F81110E94FE01EC2FBC
:1004D000F0E0EE0FFF1FEE58FF4FA591B4918FB7DC
:1004E000F894EC91111108C0D095DE23DC938FBFF6
:1004F000DF91CF911F910895DE2BF8CFCF93DF933B
:1005000090E0FC01E656FF4F24918A579F4FFC0173
:1005100084918823D1F090E0880F991FFC01E8595D
:10052000FF4FA591B491FC01EE58FF4FC591D491B6
:1005300061110EC09FB7F8948C91E22FE0958E2345
:100540008C932881E223E8839FBFDF91CF910895A8
:100550008FB7F894EC91E22BEC938FBFF6CF3FB7B7
:10056000F8948091340190913501A0913601B091B9
:10057000370126B5A89B05C02F3F19F00196A11D94
:10058000B11D3FBFBA2FA92F982F8827BC01CD01DD
:10059000620F711D811D911D42E0660F771F881F3C
:1005A000991F4A95D1F708958F929F92AF92BF926B
:1005B000CF92DF92EF92FF924B015C010E94AF025B
:1005C0006B017C010E94AF026C197D098E099F09A5
:1005D000683E734081059105A8F321E0821A9108D5
:1005E000A108B10888EEC80E83E0D81EE11CF11CFA
:1005F00081149104A104B10429F7FF90EF90DF90DA
:10060000CF90BF90AF909F908F9008951F920F92C0
:100610000FB60F9211242F933F934F935F936F93D5
:100620007F938F939F93AF93BF93EF93FF9388E351
:1006300091E00E942E01FF91EF91BF91AF919F91A8
:100640008F917F916F915F914F913F912F910F907B
:100650000FBE0F901F9018951F920F920FB60F921A
:1006600011242F938F939F93EF93FF93E091480171
:10067000F09149018081E0914E01F0914F0182FD9E
:100680001BC09081809151018F5F8F732091520127
:10069000821741F0E0915101F0E0E85CFE4F958F48
:1006A00080935101FF91EF919F918F912F910F9026
:1006B0000FBE0F901F9018958081F4CF1F920F925C
:1006C0000FB60F9211242F933F938F939F93AF9365
:1006D000BF938091300190913101A0913201B0918E
:1006E000330130912F0123E0230F2D3758F5019668
:1006F000A11DB11D20932F018093300190933101F2
:10070000A0933201B093330180913401909135016F
:10071000A0913601B09137010196A11DB11D8093C2
:10072000340190933501A0933601B0933701BF9106
:10073000AF919F918F913F912F910F900FBE0F908E
:100740001F90189526E8230F0296A11DB11DD2CF48
:100750001F920F920FB60F9211242F933F934F9336
:100760005F936F937F938F939F93AF93BF93CF9339
:10077000DF93EF93FF9380912E01C091F901D0E0B8
:1007800087FF24C0109285001092840080912E0172
:100790008F5F80932E0180912E01082E000C990B03
:1007A0008C179D0724F480912E018C30C4F1809128
:1007B000840090918500049680349C4908F47AC0A6
:1007C0008091840090918500049676C080912E01DE
:1007D000082E000C990B8C179D07C4F6E0912E0192
:1007E0008E2FEE0F990BFC01EE0FFF1FE80FF91F84
:1007F000EB52FE4F808186FFC9CFE0912E018E2FF4
:10080000EE0F990BFC01EE0FFF1FE80FF91FEB52E3
:10081000FE4F808160E08F730E945002B7CF20911D
:10082000840030918500E0912E018E2FEE0F990B00
:10083000FC01EE0FFF1FE80FF91FEB52FE4F818105
:100840009281820F931F9093890080938800E0919A
:100850002E018E2FEE0F990BFC01EE0FFF1FE80FFC
:10086000F91FEB52FE4F808186FF11C0E0912E01EF
:100870008E2FEE0F990BFC01EE0FFF1FE80FF91FF3
:10088000EB52FE4F808161E08F730E945002FF9116
:10089000EF91DF91CF91BF91AF919F918F917F9118
:1008A0006F915F914F913F912F910F900FBE0F90DD
:1008B0001F90189580E49CE99093890080938800AC
:1008C0008FEF80932E01E3CF10923B0110923A01FB
:1008D00088EE93E0A0E0B0E080933C0190933D016E
:1008E000A0933E01B0933F0184E091E090933901E1
:1008F0008093380185EC90E090934501809344010A
:1009000084EC90E0909347018093460180EC90E066
:10091000909349018093480181EC90E090934B01C2
:1009200080934A0182EC90E090934D0180934C01BA
:1009300086EC90E090934F0180934E01109251010C
:100940001092520110925301109254018091F901BA
:100950008C3098F491E0980F9093F9018093FA010C
:1009600090E0FC01EE0FFF1FE80FF91FEB52FE4F66
:1009700088EB9BE09283818308958FEF8093FA0147
:100980000895789484B5826084BD84B5816084BD07
:1009900085B5826085BD85B5816085BD80916E001D
:1009A000816080936E00109281008091810082604E
:1009B000809381008091810081608093810080918B
:1009C00080008160809380008091B100846080937A
:1009D000B1008091B00081608093B00080917A0076
:1009E000846080937A0080917A00826080937A009C
:1009F00080917A00816080937A0080917A0080688B
:100A000080937A001092C1008091FA018C3008F036
:100A100051C061E089E00E947E028091FA01282F96
:100A200030E0F901EE0FFF1FE20FF31FEB52FE4F14
:100A30009081907C996090831092FB011092FC0150
:100A40002CE0622F0E94F006829FB001112430E05A
:100A500020E0AB01420F531FFA01EE0FFF1FE40F1E
:100A6000F51FEB52FE4F908196FD16C02F5F3F4F52
:100A70002C30310571F781110FC01092800082E097
:100A8000809381001092850010928400B19A809129
:100A90006F00826080936F00E091FA018E2F90E0EA
:100AA000FC01EE0FFF1FE80FF91FEB52FE4F808194
:100AB0008064808360E080E00E947E0260E081E0EC
:100AC0000E947E0260E082E00E947E0260E083E09D
:100AD0000E947E02C0E0D0E088E790E00E948C0097
:100AE00064EF71E080E090E00E94D40282E390E045
:100AF0000E948C0064EF71E080E090E00E94D402DC
:100B000080E00E942702892BA1F481E00E94270245
:100B1000892B79F482E00E942702892B51F483E02B
:100B20000E942702892B29F490E080E00E948C002B
:100B3000E3C080E00E9427020197E1F080E00E947C
:100B40002702892B49F180E00E9427020197B1F525
:100B500081E00E942702019789F582E00E94270226
:100B6000892B61F583E00E942702892B39F58CE3FC
:100B700090E0DCCF81E00E942702892BF9F682E029
:100B80000E942702892BD1F683E00E942702892B3D
:100B9000A9F684E190E0CACF81E00E942702019784
:100BA00091F682E00E942702892B69F683E00E9479
:100BB0002702892B41F688E290E0B8CF80E00E94BE
:100BC0002702892BB9F080E00E942702019721F5C6
:100BD00081E00E942702892BF9F482E00E9427021B
:100BE0000197D1F483E00E942702892BA9F484E6BF
:100BF00090E09CCF81E00E942702892B21F782E0C0
:100C00000E9427020197F9F683E00E942702892BB0
:100C1000D1F680E590E08ACF80E00E942702892B00
:100C2000B9F080E00E942702019721F581E00E943F
:100C300027020197F9F482E00E9427020197D1F47C
:100C400083E00E942702892BA9F48CE890E06ECF04
:100C500081E00E942702019721F782E00E9427028B
:100C60000197F9F683E00E942702892BD1F688E7E5
:100C700090E05CCF80E00E942702892BB9F080E0F1
:100C80000E942702019721F581E00E942702892B0B
:100C9000F9F482E00E942702892BD1F483E00E94BC
:100CA00027020197A9F484EB90E040CF81E00E94F5
:100CB0002702892B21F782E00E942702892BF9F66F
:100CC00083E00E9427020197D1F680EA90E02ECFC0
:100CD00084EB90E00E948C0047E150E062E171E01B
:100CE00088E391E00E94D10142E050E06AE271E0C5
:100CF00088E391E00E94D10168EE73E080E090E02B
:100D00000E94D402209709F4E7CE0E94BD018823F7
:100D100009F4E2CE0E940000DFCE052E97FB1EF400
:100D200000940E94A40657FD07D00E94BF0607FC4E
:100D300003D04EF40C94A40650954095309521951F
:100D40003F4F4F4F5F4F08959095809570956195F7
:100D50007F4F8F4F9F4F08950E94E106A59F900DF2
:100D6000B49F900DA49F800D911D11240895B7FF8D
:100D70000C94AC060E94AC06821B930B0895A1E272
:100D80001A2EAA1BBB1BFD010DC0AA1FBB1FEE1F05
:100D9000FF1FA217B307E407F50720F0A21BB30B50
:100DA000E40BF50B661F771F881F991F1A9469F7CC
:100DB00060957095809590959B01AC01BD01CF0128
:100DC0000895A29FB001B39FC001A39F700D811D24
:100DD0001124911DB29F700D811D1124911D089544
:100DE000991B79E004C0991F961708F0961B881F7D
:100DF0007A95C9F780950895EE0FFF1F0590F4913D
:080E0000E02D0994F894FFCFE6
:100E0800000000005001D101F1009D012201000104
:100E18001401696E76616C696420696E7075742E50
:0E0E28002E2E2E2E2E2E2E2E2E000D0A000007
:00000001FF
