:100000000C9462000C948A000C948A000C948A0070
:100010000C948A000C948A000C948A000C948A0038
:100020000C948A000C948A000C948A000C94C803E7
:100030000C948A000C948A000C948A000C948A0018
:100040000C947E030C948A000C944C030C942603AD
:100050000C948A000C948A000C948A000C948A00F8
:100060000C948A000C948A000000000024002700F1
:100070002A0000000000250028002B0000000000DE
:1000800023002600290004040404040404040202DA
:100090000202020203030303030301020408102007
:1000A0004080010204081020010204081020000012
:1000B0000008000201000003040700000000000027
:1000C0000000840411241FBECFEFD8E0DEBFCDBFF7
:1000D00011E0A0E0B1E0EEEBFEE002C005900D9271
:1000E000A036B107D9F722E0A0E6B1E001C01D9229
:1000F000AF32B207E1F710E0C2E6D0E004C02197CA
:10010000FE010E945707C136D107C9F70E94E104DA
:100110000C945D070C9400008F929F92AF92BF9257
:10012000FF920F931F93CF93DF93F0902C022BE05D
:100130002F1508F44CC020912E0208E512E0021B96
:10014000110927FD1395000F111F000F111F20919A
:100150002D02C8E8D0E0C21BD10927FDD395CC0FF2
:10016000DD1FCC0FDD1F4E010D2E000CAA08BB08B1
:100170009801012E000C440B550B281939094A0926
:100180005B09DC010E94120724EB30E040E050E004
:100190000E94E806820E931EA41EB51E8C169D06B4
:1001A0002CF0E801801691060CF4E4012297CC0FA4
:1001B000DD1F2FB7F8948F2D90E0FC01EE0FFF1F8D
:1001C000E80FF91FE95FFD4FD283C1832FBFDF9195
:1001D000CF911F910F91FF90BF90AF909F908F9004
:1001E0000895AF92BF92CF92DF92EF92FF920F935A
:1001F0001F93CF93DF936C017B018B01040F151FBD
:10020000EB015E01AE18BF08C017D10759F0699124
:10021000D601ED91FC910190F081E02DC601099588
:10022000892B79F7C501DF91CF911F910F91FF9035
:10023000EF90DF90CF90BF90AF900895FC01538D69
:10024000448D252F30E0842F90E0821B930B5417B0
:1002500010F0CF96089501970895FC01918D828D3D
:10026000981761F0A28DAE0FBF2FB11D5D968C91D6
:10027000928D9F5F9F73928F90E008958FEF9FEF15
:100280000895FC01918D828D981731F0828DE80FD1
:10029000F11D858D90E008958FEF9FEF0895FC018B
:1002A000918D228D892F90E0805C9F4F821B910958
:1002B0008F73992708958AE691E00E944F0121E00B
:1002C000892B09F420E0822F089580E090E0892BAB
:1002D00029F00E945B0181110C9400000895FC013B
:1002E000A48DA80FB92FB11DA35ABF4F2C91848D97
:1002F00090E001968F739927848FA689B7892C93F4
:10030000A089B1898C91837080648C93938D848D46
:10031000981306C00288F389E02D80818F7D808349
:100320000895EF92FF920F931F93CF93DF93EC0109
:1003300081E0888F9B8D8C8D98131AC0E889F9898C
:10034000808185FF15C09FB7F894EE89FF8960838F
:10035000E889F98980818370806480839FBF81E010
:1003600090E0DF91CF911F910F91FF90EF90089552
:10037000F62E0B8D10E00F5F1F4F0F731127E02E2D
:100380008C8D8E110CC00FB607FCFACFE889F98965
:10039000808185FFF5CFCE010E946F01F1CFEB8DFB
:1003A000EC0FFD2FF11DE35AFF4FF0829FB7F89439
:1003B0000B8FEA89FB8980818062CFCFCF93DF9357
:1003C000EC01888D8823B9F0AA89BB89E889F9896D
:1003D0008C9185FD03C0808186FD0DC00FB607FCA2
:1003E000F7CF8C9185FFF2CF808185FFEDCFCE01D5
:1003F0000E946F01E9CFDF91CF910895833081F0A2
:1004000028F4813099F08230A9F008958730A9F05E
:100410008830C9F08430B1F4809180008F7D03C0B2
:10042000809180008F7780938000089584B58F77C6
:1004300084BD089584B58F7DFBCF8091B0008F7708
:100440008093B00008958091B0008F7DF9CFCF9355
:10045000DF93282F30E0F901E255FF4F8491F90135
:10046000E656FF4FD491F901EA57FF4FC491CC23D0
:10047000A1F081110E94FE01EC2FF0E0EE0FFF1FB2
:10048000E458FF4FA591B491EC91ED2381E090E009
:1004900009F480E0DF91CF91089580E090E0FACFF9
:1004A0001F93CF93DF93282F30E0F901E255FF4FE0
:1004B0008491F901E656FF4FD491F901EA57FF4FB5
:1004C000C491CC23A9F0162F81110E94FE01EC2FBC
:1004D000F0E0EE0FFF1FEE58FF4FA591B4918FB7DC
:1004E000F894EC91111108C0D095DE23DC938FBFF6
:1004F000DF91CF911F910895DE2BF8CFCF93DF933B
:1005000090E0FC01E656FF4F24918A579F4FFC0173
:1005100084918823D1F090E0880F991FFC01E8595D
:10052000FF4FA591B491FC01EE58FF4FC591D491B6
:1005300061110EC09FB7F8948C91E22FE0958E2345
:100540008C932881E223E8839FBFDF91CF910895A8
:100550008FB7F894EC91E22BEC938FBFF6CF3FB7B7
:10056000F8948091660190916701A0916801B09123
:10057000690126B5A89B05C02F3F19F00196A11D62
:10058000B11D3FBFBA2FA92F982F8827BC01CD01DD
:10059000620F711D811D911D42E0660F771F881F3C
:1005A000991F4A95D1F708958F929F92AF92BF926B
:1005B000CF92DF92EF92FF920E94AF024B015C015B
:1005C00084E6C82ED12CE12CF12C0E94AF026819D0
:1005D00079098A099B09683E734081059105A8F352
:1005E00021E0C21AD108E108F10888EE880E83E004
:1005F000981EA11CB11CC114D104E104F10429F717
:10060000FF90EF90DF90CF90BF90AF909F908F9032
:100610000895CF93DF93FC0101900020E9F7319713
:10062000AF01481B590BBC018AE691E00E94F10022
:10063000EC0142E050E062E171E08AE691E00E9464
:10064000F1008C0F9D1FDF91CF9108951F920F92A3
:100650000FB60F9211242F933F934F935F936F9395
:100660007F938F939F93AF93BF93EF93FF938AE60C
:1006700091E00E946F01FF91EF91BF91AF919F9127
:100680008F917F916F915F914F913F912F910F903B
:100690000FBE0F901F9018951F920F920FB60F92DA
:1006A00011242F938F939F93EF93FF93E0917A01FF
:1006B000F0917B018081E0918001F091810182FDC8
:1006C0001BC09081809183018F5F8F732091840183
:1006D000821741F0E0918301F0E0E659FE4F958FDB
:1006E00080938301FF91EF919F918F912F910F90B4
:1006F0000FBE0F901F9018958081F4CF1F920F921C
:100700000FB60F9211242F933F938F939F93AF9324
:10071000BF938091620190916301A0916401B091B7
:1007200065013091610123E0230F2D3758F50196C3
:10073000A11DB11D2093610180936201909363011B
:10074000A0936401B0936501809166019091670167
:10075000A0916801B09169010196A11DB11D80931E
:10076000660190936701A0936801B0936901BF91FE
:10077000AF919F918F913F912F910F900FBE0F904E
:100780001F90189526E8230F0296A11DB11DD2CF08
:100790001F920F920FB60F9211242F933F934F93F6
:1007A0005F936F937F938F939F93AF93BF93CF93F9
:1007B000DF93EF93FF9380916001C0912B02D0E013
:1007C00087FF24C010928500109284008091600100
:1007D0008F5F8093600180916001082E000C990B5F
:1007E0008C179D0724F4809160018C30C4F18091B6
:1007F000840090918500049680349C4908F47AC066
:100800008091840090918500049676C0809160016B
:10081000082E000C990B8C179D07C4F6E09160011F
:100820008E2FEE0F990BFC01EE0FFF1FE80FF91F43
:10083000E95FFD4F808186FFC9CFE09160018E2F77
:10084000EE0F990BFC01EE0FFF1FE80FF91FE95F98
:10085000FD4F808160E08F730E945002B7CF2091DE
:10086000840030918500E09160018E2FEE0F990B8E
:10087000FC01EE0FFF1FE80FF91FE95FFD4F8181BB
:100880009281820F931F9093890080938800E0915A
:1008900060018E2FEE0F990BFC01EE0FFF1FE80F8A
:1008A000F91FE95FFD4F808186FF11C0E091600173
:1008B0008E2FEE0F990BFC01EE0FFF1FE80FF91FB3
:1008C000E95FFD4F808161E08F730E945002FF91CC
:1008D000EF91DF91CF91BF91AF919F918F917F91D8
:1008E0006F915F914F913F912F910F900FBE0F909D
:1008F0001F90189580E49CE990938900809388006C
:100900008FEF80936001E3CF10926D0110926C0124
:1009100088EE93E0A0E0B0E080936E0190936F01C9
:10092000A0937001B093710184E091E090936B010A
:1009300080936A0185EC90E0909377018093760133
:1009400084EC90E0909379018093780180EC90E0C2
:1009500090937B0180937A0181EC90E090937D01EC
:1009600080937C0182EC90E090937F0180937E01E4
:1009700086EC90E090938101809380011092830136
:1009800010928401109285011092860180912B02B1
:100990008C3098F491E0980F90932B0280932C0266
:1009A00090E0FC01EE0FFF1FE80FF91FE95FFD4F1C
:1009B00088EB9BE09283818308958FEF80932C02D4
:1009C0000895789484B5826084BD84B5816084BDC7
:1009D00085B5826085BD85B5816085BD80916E00DD
:1009E000816080936E00109281008091810082600E
:1009F000809381008091810081608093810080914B
:100A000080008160809380008091B1008460809339
:100A1000B1008091B00081608093B00080917A0035
:100A2000846080937A0080917A00826080937A005B
:100A300080917A00816080937A0080917A0080684A
:100A400080937A001092C10080912C028C3008F0C3
:100A500051C061E089E00E947E0280912C02282F23
:100A600030E0F901EE0FFF1FE20FF31FE95FFD4FCA
:100A70009081907C9960908310922D0210922E02AA
:100A80002CE0622F0E944B07829FB001112430E0BE
:100A900020E0AB01420F531FFA01EE0FFF1FE40FDE
:100AA000F51FE95FFD4F908196FD16C02F5F3F4F08
:100AB0002C30310571F781110FC01092800082E057
:100AC000809381001092850010928400B19A8091E9
:100AD0006F00826080936F00E0912C028E2F90E077
:100AE000FC01EE0FFF1FE80FF91FE95FFD4F80814A
:100AF0008064808360E080E00E947E0260E081E0AC
:100B00000E947E0260E082E00E947E0260E083E05C
:100B10000E947E02E0917A01F0917B0182E0808365
:100B2000E0917601F09177011082E0917801F091E7
:100B300079018FEC808310928201E0917E01F09127
:100B40007F0186E08083E0917C01F0917D018081CE
:100B500080618083E0917C01F0917D0180818860DB
:100B60008083E0917C01F0917D01808180688083A9
:100B7000E0917C01F0917D0180818F7D8083C0E0D8
:100B8000D0E080E00E942702892BC1F481E00E941E
:100B90002702892B99F482E00E942702892B71F4A5
:100BA00083E00E942702892B49F485E191E00E94AD
:100BB000090390E080E00E948C00FDC080E00E946C
:100BC0002702019709F180E00E942702892B91F109
:100BD00080E00E942702019709F043C081E00E9453
:100BE00027020197F1F582E00E942702892BC9F5BF
:100BF00083E00E942702892BA1F582E291E00E9406
:100C000009038CE390E0D7CF81E00E942702892B73
:100C1000D1F682E00E942702892BA9F683E00E9488
:100C20002702892B81F68AE191E00E94090384E181
:100C300090E0C1CF81E00E942702019749F682E04F
:100C40000E942702892B21F683E00E942702892B2C
:100C500009F0BECF8EE191E00E94090388E290E0A6
:100C6000AACF80E00E942702892BD9F080E00E9461
:100C70002702019761F581E00E942702892B39F54F
:100C800082E00E942702019711F583E00E9427026B
:100C9000892BE9F48DE291E00E94090384E690E05B
:100CA0008ACF81E00E942702892B01F782E00E940F
:100CB00027020197D9F683E00E942702892BB1F61B
:100CC00088E291E00E94090380E590E074CF80E023
:100CD0000E942702892BD9F080E00E942702019709
:100CE00061F581E00E942702019739F582E00E94B8
:100CF0002702019711F583E00E942702892BE9F46E
:100D000086E391E00E9409038CE890E054CF81E0F3
:100D10000E942702019701F782E00E9427020197B3
:100D2000D9F683E00E942702892BB1F682E391E095
:100D30000E94090388E790E03ECF80E00E942702EE
:100D4000892BD9F080E00E942702019761F581E0AC
:100D50000E942702892B39F582E00E942702892B05
:100D600011F583E00E9427020197E9F48AE591E0FA
:100D70000E94090384EB90E01ECF81E00E942702CD
:100D8000892B01F782E00E942702892BD9F683E0A4
:100D90000E9427020197B1F684E591E00E940903C1
:100DA00080EA90E008CF84EB90E00E948C008CE316
:100DB00091E00E9409030E94D402209709F4E1CE39
:100DC0000E945B01882309F4DCCE0E940000D9CE8A
:100DD000052E97FB1EF400940E94FF0657FD07D0D6
:100DE0000E941A0707FC03D04EF40C94FF0650959E
:100DF0004095309521953F4F4F4F5F4F0895909507
:100E00008095709561957F4F8F4F9F4F08950E94F9
:100E10003C07A59F900DB49F900DA49F800D911D40
:100E200011240895B7FF0C9407070E940707821B3F
:100E3000930B0895A1E21A2EAA1BBB1BFD010DC046
:100E4000AA1FBB1FEE1FFF1FA217B307E407F5077A
:100E500020F0A21BB30BE40BF50B661F771F881F56
:100E6000991F1A9469F760957095809590959B01EC
:100E7000AC01BD01CF010895A29FB001B39FC00195
:100E8000A39F700D811D1124911DB29F700D811DB6
:100E90001124911D0895991B79E004C0991F96179C
:100EA00008F0961B881F7A95C9F780950895EE0F74
:0E0EB000FF1F0590F491E02D0994F894FFCFF8
:100EBE00000000009101F1001E01DE014F012D0125
:100ECE0041010D0A007A65726F006F6E65007477CE
:100EDE006F00746872656500666F7572006669767C
:100EEE00650073657800736576656E00696E766170
:100EFE006C696420696E7075742E2E2E2E2E2E2E19
:100F0E002E2E2E006569676874006E696E6500008E
:00000001FF
